:0400000080312728FC
:100008007E14803120007F08F1000B1F2228210078
:10001800101E17282000101E17286B088A006A086F
:100028000A00803122282100901E22282000901EDC
:10003800222869088A0068080A00803171082000AF
:10004800FF007E10090080312928FA01FB01663083
:100058008400003085000A30843195248031E430F2
:1000680084000030850008308431952480312030A8
:100078008400013085004830843195248031A030D7
:100088008400013085004030843195247E102000A2
:1000980080314E288431782480318B170B1721004A
:1000A800E2012030860001308700A2308400003051
:1000B80085004030A00016001A00A00B5F2881318F
:1000C8006221803182316822803129302100A100EB
:1000D8009630A0007F30890B6F28A00B6F28A10BEA
:1000E8006F2882316822803129302100A1009630A2
:1000F800A0007F30890B7E28A00B7E28A10B7E28CC
:1001080082316822803129302100A1009630A00078
:100118007F30890B8D28A00B8D28A10B8D2882316B
:100128006822803129302100A1009630A0007F305C
:10013800890B9C28A00B9C28A10B9C288231682243
:10014800803129302100A1009630A0007F30890B32
:10015800AB28A00BAB28A10BAB28823168228031D9
:1001680029302100A1009630A0007F30890BBA28E1
:10017800A00BBA28A10BBA28823168228031293015
:100188002100A1009630A0007F30890BC928A00B60
:10019800C928A10BC9288231682280312930210061
:1001A800A1009630A0007F30890BD828A00BD82852
:1001B800A10BD82882316822803129302100A10082
:1001C8009630A0007F30890BE728A00BE728A10B09
:1001D800E72882316822803129302100A100963039
:1001E800A0007F30890BF628A00BF628A10BF62873
:1001F80084312C24803129302100A1009630A000C0
:100208007F30890B0529A00B0529A10B052984310D
:10021800A72480312100A0002008E30024306306D1
:10022800031D4B29031022008C1C0314031C1F29D7
:1002380022008C14212922008C1003100C1D031499
:10024800031C292922000C152B2922000C1103104C
:100258008C1E0314031C332922008C163529220016
:100268008C1203108E1E0314031C3D2922008E16C7
:100278003F2922008E1229302100A1009630A000CB
:100288007F30890B4529A00B4529A10B4529200062
:100298000E1A5D2922008C14243083319B2380316F
:1002A8000A3083319B2380310D3083319B23803189
:1002B8000B290E1E0B2922008C100B292000E501AA
:1002C800A03086000130870025308400003085008A
:1002D8004030F80016001A00F80B6E2984315424B7
:1002E80081314030F4000030F50025308131FE21A5
:1002F80081317408F80078082000E5002930F900F9
:100308009630F8007F30890B8729F80B8729F90B7D
:10031800872900008431142481314030F4000030F2
:10032800F50025308131FE2181317408F800780804
:100338002000E5008231BD2281314030F4000030D8
:10034800F50025308131FE2181317408F8007808E4
:100358002000E5008231F12281314030F400003084
:10036800F50025308131FE2181317408F8007808C4
:100378002000E5008331772381314030F4000030DC
:10038800F50025308131FE2181317408F8007808A4
:100398002000E5008431402481314030F4000030F1
:1003A800F50025308131FE2181317408F800780884
:1003B8002000E50084316C2481314030F4000030A5
:1003C800F50025308131FE2181317408F800780864
:1003D8002000E5008431602481314030F400003091
:1003E800F50025308131FE217408F80078082000D6
:1003F800E50008002000A400A001A101A201A301BA
:100408003430F600F230890B072AF60B072A013040
:100418002000A2070030A33D0A3022062304031D52
:100428001A2AFF30F400FF30F50008007A08031D8F
:100438005F2A042A8331BE238131F6002000200878
:100448002407F700770886008701760881000130C5
:10045800A0070030A13D75082106031D352A740840
:1004680020060319452A4D2A8331BE2381317A0893
:10047800031D452A3430F600F230890B412AF60B69
:10048800412A7A08031D382AFE30F400FF30F500AF
:1004980008000B30F6006230890B502AF60B502A00
:1004A80000327A08031D5F2A2A30F6008E30890B45
:1004B8005B2AF60B5B2A7A08031D1E2A20002308F4
:1004C800F5002208F4000800453083319B2382316F
:1004D8002C3083319B238231303083319B2382310E
:1004E8002C3083319B238231303083319B238231FE
:1004F800303083319B238231313083319B238231E9
:10050800453083319B238231433083319B238231B1
:10051800303083319B238231343083319B238231C5
:10052800313083319B238231463083319B238231A2
:10053800313083319B238231333083319B238231A5
:10054800343083319B2382310D3083319B238231B8
:100558000A3083319B2382310530F5000F30F400D7
:10056800F130890BB52AF40BB52AF50BB52A000032
:100578000800533083319B238231533083319B23CE
:1005880082312C3083319B238231433083319B234A
:100598008231303083319B238231303083319B2349
:1005A8008231303083319B238231303083319B2339
:1005B8008231303083319B238231303083319B2329
:1005C8008231303083319B2382310D3083319B233C
:1005D80082310A3083319B230800533083319B23B7
:1005E8008231523083319B2382312C3083319B23DB
:1005F8008231393083319B238231323083319B23DE
:100608008231303083319B238231303083319B23D8
:100618008231303083319B238231303083319B23C8
:100628008231303083319B238231303083319B23B8
:1006380082310D3083319B2382310A3083319B23F1
:10064800080022008C018D018E01113021008C00E0
:1006580030308D00DF308E00CF3023008E008030A8
:100668008D0017308C0024008D018C018E01210033
:10067800951725008C018D018E010D303C00A400DA
:100688000C30A10010303D009E0012309F000E304B
:100698003C00A000080021009012F830F20003305E
:1006A800F3008431A124833121001012DB30F200E1
:1006B8000330F30084319B24083023009F009030DE
:1006C8009D0024309E0044309B009C01FB012000CB
:1006D800EF010830F4007408EE00ED01EC01FA01B6
:1006E800210090160800533083319B2383312D302D
:1006F80083319B2383312C3083319B2383313230E8
:1007080083319B238331443083319B2383313130C0
:1007180083319B238331353083319B2383310D30E3
:1007280083319B2383310A3083319B230800F300F4
:1007380020006E0803199C2B2100101AA72B7308A0
:1007480023009A00BB2B10127308F2007B08E43ECA
:1007580086008701720881000130F2007208FB07E9
:1007680008307B020318FB0101302000EE02210053
:1007780010160800F3017A080319BF2B20006C0833
:10078800603E8600013087000108F2007208F3001D
:100798000130F2007208EC0708306C020318EC0113
:1007A800210090120130FA029016730808000830F0
:1007B80020006E020318F52B6F08E43E86008701BF
:1007C800010823009A000130F00070082000EF07AC
:1007D80008306F020318EF010130F0007008EE07CF
:1007E800080021001012080023009D1CFD2B1D127B
:1007F8001D161908F00020006D08603E86000130C3
:100808008700700881000130F0007008ED0708309B
:100818006D020318ED010130F0007008FA070800B6
:10082800533083319B238431463083319B23843179
:100838002C3083319B238431313083319B238431A5
:100848000D3083319B2384310A3083319B23080088
:10085800213083319B2384312C3083319B23843195
:10086800313083319B2384310D3083319B23843194
:100878000A3083319B230800523083319B23843113
:100888002C3083319B238431313083319B23843155
:100898000D3083319B2384310A3083319B23080038
:1008A8002B3083319B2384310D3083319B2384315A
:1008B8000A3083319B230800583083319B238431CD
:1008C8000D3083319B2384310A3083319B23080008
:1008D800463083319B2384310D3083319B2384310F
:1008E8000A3083319B2308008331252384318431E6
:1008F8008424843184318E24843183314F23080049
:1009080070302100990098012200960121001A1BDD
:1009180008008A2C240094012A3095004030920067
:100928000800640080010131890B962C003473089B
:100938002000EB007208EA00080073082000E900B4
:0C0948007208E8000800230019080800ED
:020000040001F9
:06000E00FC3FFF3F9F3F95
:00000001FF
