:0400000080312728FC
:100008007E14803120007F08F1000B1F2228210078
:10001800101E17282000101E17286B088A006A086F
:100028000A00803122282100901E22282000901EDC
:10003800222869088A0068080A00803171082000AF
:10004800FF007E10090080312928FA01FB01663083
:100058008400003085000A30843155248031E33033
:1000680084000030850008308431552480312030E8
:100078008400013085004830843155248031A03017
:100088008400013085004030843155247E102000E2
:1000980080314E288431382480318B170B1721008A
:1000A800E2012030860001308700A2308400003051
:1000B80085004030A00016001A00A00B5F2881318F
:1000C8002221803182312822803129302100A1006B
:1000D8009630A0007F30890B6F28A00B6F28A10BEA
:1000E8006F2882312822803129302100A1009630E2
:1000F800A0007F30890B7E28A00B7E28A10B7E28CC
:1001080082312822803129302100A1009630A000B8
:100118007F30890B8D28A00B8D28A10B8D2882316B
:100128002822803129302100A1009630A0007F309C
:10013800890B9C28A00B9C28A10B9C288231282283
:10014800803129302100A1009630A0007F30890B32
:10015800AB28A00BAB28A10BAB2882312822803119
:1001680029302100A1009630A0007F30890BBA28E1
:10017800A00BBA28A10BBA28823128228031293055
:100188002100A1009630A0007F30890BC928A00B60
:10019800C928A10BC92882312822803129302100A1
:1001A800A1009630A0007F30890BD828A00BD82852
:1001B800A10BD82882312822803129302100A100C2
:1001C8009630A0007F30890BE728A00BE728A10B09
:1001D800E72882312822803129302100A100963079
:1001E800A0007F30890BF628A00BF628A10BF62873
:1001F8008331EC23803129302100A1009630A00002
:100208007F30890B0529A00B0529A10B05291A297F
:1002180022000C15243083315B2380310A3083316E
:100228005B2380310D3083315B23803120000E1E2B
:100238000C290E1E1A2922000C111A292000E5018A
:10024800A03086000130870025308400003085000A
:100258004030F80016001A00F80B2E2984311424B7
:1002680081314030F4000030F50025308131BE2165
:1002780081317408F80078082000E5002930F90079
:100288009630F8007F30890B4729F80B4729F90B7E
:10029800472900008331D42381314030F4000030F5
:1002A800F50025308131BE2181317408F8007808C5
:1002B8002000E50082317D2281314030F400003099
:1002C800F50025308131BE2181317408F8007808A5
:1002D8002000E5008231B12281314030F400003045
:1002E800F50025308131BE2181317408F800780885
:1002F8002000E5008331372381314030F40000309D
:10030800F50025308131BE2181317408F800780864
:100318002000E5008431002481314030F4000030B1
:10032800F50025308131BE2181317408F800780844
:100338002000E50084312C2481314030F400003065
:10034800F50025308131BE2181317408F800780824
:100358002000E5008431202481314030F400003051
:10036800F50025308131BE217408F8007808200096
:10037800E50008002000A400A001A101A201A3013A
:100388003430F600F230890BC729F60BC729013043
:100398002000A2070030A33D0A3022062304031DD3
:1003A800DA29FF30F400FF30F50008007A08031D51
:1003B8001F2AC42983317E238131F60020002008BA
:1003C8002407F70077088600870176088100013046
:1003D800A0070030A13D75082106031DF529740802
:1003E80020060319052A0D2A83317E2381317A08D4
:1003F800031D052A3430F600F230890B012AF60B6A
:10040800012A7A08031DF829FE30F400FF30F500B0
:1004180008000B30F6006230890B102AF60B102A00
:1004280000327A08031D1F2A2A30F6008E30890B05
:100438001B2AF60B1B2A7A08031DDE292000230835
:10044800F5002208F4000800453083315B2382312F
:100458002C3083315B238231303083315B2382310E
:100468002C3083315B238231303083315B238231FE
:10047800303083315B238231313083315B238231E9
:10048800453083315B238231433083315B238231B2
:10049800303083315B238231343083315B238231C6
:1004A800313083315B238231463083315B238231A3
:1004B800313083315B238231333083315B238231A6
:1004C800343083315B2382310D3083315B238231B9
:1004D8000A3083315B2382310530F5000F30F40098
:1004E800F130890B752AF40B752AF50B752A000073
:1004F8000800533083315B238231533083315B23CF
:1005080082312C3083315B238231433083315B234A
:100518008231303083315B238231303083315B2349
:100528008231303083315B238231303083315B2339
:100538008231303083315B238231303083315B2329
:100548008231303083315B2382310D3083315B233C
:1005580082310A3083315B230800533083315B23B7
:100568008231523083315B2382312C3083315B23DB
:100578008231393083315B238231323083315B23DE
:100588008231303083315B238231303083315B23D9
:100598008231303083315B238231303083315B23C9
:1005A8008231303083315B238231303083315B23B9
:1005B80082310D3083315B2382310A3083315B23F2
:1005C800080022008C018D018E01333021008C003F
:1005D80030308D00FF308E00C73023008E00803011
:1005E8008D0017308C0024008D018C018E012100B4
:1005F800951725008C018D018E010D303C00A4005B
:100608000C30A10010303D009E0012309F000E30CB
:100618003C00A000080021009012B830F20003301E
:10062800F300843161248331210010129B30F200E1
:100638000330F30084315B24083023009F0090309E
:100648009D0024309E0044309B009C01FB0120004B
:10065800EF010830F4007408EE00ED01EC01FA0136
:10066800210090160800533083315B2383312D30ED
:1006780083315B2383312C3083315B2383313230E8
:1006880083315B238331443083315B2383313130C1
:1006980083315B238331353083315B2383310D30E4
:1006A80083315B2383310A3083315B230800F300F5
:1006B80020006E0803195C2B2100101A672B7308A1
:1006C80023009A007B2B10127308F2007B08E33E8C
:1006D80086008701720881000130F2007208FB076A
:1006E80008307B020318FB0101302000EE022100D4
:1006F80010160800F3017A0803197F2B20006C08F4
:10070800603E8600013087000108F2007208F3009D
:100718000130F2007208EC0708306C020318EC0193
:10072800210090120130FA02901673080800083070
:1007380020006E020318B52B6F08E33E8600870180
:10074800010823009A000130F00070082000EF072C
:1007580008306F020318EF010130F0007008EE074F
:10076800080021001012080023009D1CBD2B1D123B
:100778001D161908F00020006D08603E8600013043
:100788008700700881000130F0007008ED0708301C
:100798006D020318ED010130F0007008FA07080037
:1007A800533083315B238331463083315B2383317C
:1007B8002C3083315B238331313083315B238331A8
:1007C8000D3083315B2383310A3083315B2308008A
:1007D800213083315B2383312C3083315B23833198
:1007E800313083315B2383310D3083315B23833197
:1007F8000A3083315B230800523083315B23843114
:100808002C3083315B238431313083315B23843155
:100818000D3083315B2384310A3083315B23080038
:100828002B3083315B2384310D3083315B2384315A
:100838000A3083315B230800583083315B238431CD
:100848000D3083315B2384310A3083315B23080008
:10085800463083315B2384310D3083315B2384310F
:100868000A3083315B2308008231E52284318431E8
:100878004424843184314E24843183310F23080089
:1008880070302100990098012200960121001A1B5E
:1008980008004A2C240094012A3095004030920028
:1008A8000800640080010131890B562C003473085C
:1008B8002000EB007208EA00080073082000E90035
:0608C8007208E8000800C0
:020000040001F9
:06000E00FC3FFF3F9F3F95
:00000001FF
