:10000000803102288731EE2F70302100990098014D
:10001000220096010800F000700824009100141CD2
:100020000F281108080080311C2080318031042005
:1000300080318F31F827080022008C018D010430B7
:100040008E00213021008C0090308D00FB308E001E
:10005000CB3023008E0080308D0013308C002400C4
:100060008D018C018E012100951325008C018D01DD
:100070008E010C303C00A10010303D009E0011307C
:100080009D000E303C00A00008000030FB00003056
:10009000FA000030F9000030F800701C572874088E
:1000A000F8077508F93D7608FA3D7708FB3D013001
:1000B000F435F50DF60DF70D890B58280130F336A0
:1000C000F20CF10CF00C890B5F28730872047104B8
:1000D0007004031D4D287B08F3007A08F2007908AC
:1000E000F1007808F00008002000A9002908403835
:1000F0007F3980310B208031003020002005A500A1
:1001000000302105A60000302205A700FF3023059E
:10011000A8001830A836A70CA60CA50C890B8A28B5
:10012000250880310B20803120002008A5002108FF
:10013000A6002208A7002308A8001030A836A70CA4
:10014000A60CA50C890B9E28250880310B20803138
:1001500020002008A5002108A6002208A7002308E7
:10016000A8000830A836A70CA60CA50C890BB2284D
:10017000250880310B2080312000200880310B20A1
:10018000803120002408013880310B20803120008C
:10019000AB010A302B020318E028FF3080310B201E
:1001A00080312000A5002508AA002A0A031DE028A6
:1001B0000130A5002508AB070A302B02031CCD280F
:1001C0002A0808002000DC01DC0ADD018031132050
:1001D00080318231052280318431D6248031003053
:1001E0002000EC000230ED0020005C08D000D101BE
:1001F0000530D035D10D890BF9285008143EAC00DC
:100200000030513DAD005D08D2005208AE00823191
:10021000E72280312100270826042504240403193D
:10022000F428FE302407F000FF30253DF100FF30B8
:10023000263DF200FF30273DF30020006E08D0007D
:10024000D101D201D3015308F7005208F60051083A
:10025000F5005008F40080314520803170082000FE
:100260005E07D40071085F3DD5007208603DD6007E
:100270007308613DD70001305407D8000030553D68
:10028000D9000030563DDA000030573DDB005B08F6
:10029000F3005A08F2005908F1005808F0006C0801
:1002A000F4006D08F500F601F7018031452080313A
:1002B00073082100B7007208B6007108B500700815
:1002C000B400813165218031F42822000E11210013
:1002D00037082000A300210036082000A2002100DA
:1002E00035082000A100210034082000A000FF30C4
:1002F000AC002C08A4001230803174208131200021
:10030000AD00AE012D08B0002E08B1000130200074
:10031000AC000030AD000030AE000030AF002C0863
:100320002100A00220002D082100A13B20002E0862
:100330002100A23B20002F082100A33B200A031D1F
:10034000A929210A031DA929220A0319230A03192D
:10035000E629FF3080310B208131FE3A031DA929A7
:100360002000B301B401023034020030031933021B
:100370000318DD290B1DBA29A530200095000B11AB
:10038000FF3080310B2081312000AC002C08B200FE
:100390003208AC000230AC36890BCB292C08250082
:1003A000910001302000B3070030B43D0230340228
:1003B000003003193302031CBA29FF3080310B20AF
:1003C0008131FF3080310B208131862900302000BF
:1003D000A3000030A2000030A1000030A000FF30D8
:1003E000AC002C08A4000C30803174208131FF3027
:1003F00080310B208131FF3080310B208131220090
:100400000E15FF3080310B20080022000E15200051
:10041000B0010A30300203181A2AFF3080310B2055
:1004200082310130FC007C082000B0070A30300225
:10043000031C0D2A22000E116430FC007C082000F1
:10044000B000292AFF3080310B208231013020009A
:10045000B0020030A3000030A2000030A100003044
:10046000A0009530FC007C08A4000030803174208E
:100470008231013A0319402A20003008031D222A44
:1004800020003008031D482A22008C140C150C167D
:1004900000302000A3000030A2000130A100AA30EB
:1004A000A0008730FC007C08A40008308031742054
:1004B0008231013A031DAE2AFF3080310B20823198
:1004C000FC007C082000AC00FF3080310B20823122
:1004D000FC007C082000AD00FF3080310B20823111
:1004E000FC007C082000AE00FF3080310B20823100
:1004F000FC007C082000AF002E03031DAA2AAA30AE
:100500002F06031DAA2A0030A3000030A2000030ED
:10051000A1000030A000FF30FC007C08A4003730B0
:1005200080317420823140302000A3000030A200CE
:100530000030A1000030A000FF30FC007C08A400C7
:100540002930803174208231003A0319AE2A0030FC
:100550002000842A22008C140C150C160030200078
:10056000A3000030A2000030A1000030A000FF3046
:10057000FC007C08A4003A30803174208231003ABB
:10058000031D0800FF3080310B208231FC007C0805
:100590002000AC00FF3080310B208231FC007C0851
:1005A0002000AD00FF3080310B208231FC007C0840
:1005B0002000AE00FF3080310B20FC007C082000C2
:1005C000AF002C084039FC007C08EB00080000302C
:1005D0002000EC000230ED0022000E1120002E0859
:1005E00021003007F00031080318310F0310F1002B
:1005F00032080318320F0310F20033080318330ACD
:10060000F30020006C08F4006D08F500F601F70116
:1006100080314520823173082000A3007208A200B7
:100620007108A1007008A000FF30AF002F08A400DF
:1006300011308031742082312000B000B1013008C7
:10064000BF003108C000FF3080310B208231FE3AFC
:10065000031D232B2000C901CA0102304A020030C9
:10066000031949020318F62B2D084A06031D3A2BDD
:100670002C084906031D452BFF3080310B208231A9
:100680002000AF002F08C300EA2B2C08013EAF006A
:1006900000302D3DB0004A083006031D512B49089B
:1006A0002F06031D5C2BFF3080310B208231200090
:1006B000AF002F08C400EA2B2C08063EAF00003024
:1006C0002D3DB0004A083006031D682B49082F064F
:1006D000031D732BFF3080310B2082312000AF00CF
:1006E0002F08C100EA2B2C08073EAF0000302D3D3B
:1006F000B0004A083006031D7F2B49082F06031D52
:100700008A2BFF3080310B2082312000AF002F0870
:10071000C200EA2B2C08083EAF0000302D3DB0008F
:100720004A083006031D962B49082F06031DA12BEE
:10073000FF3080310B2082312000AF002F08C50030
:10074000EA2B2C08093EAF0000302D3DB0004A08CE
:100750003006031DAD2B49082F06031DB82BFF30B3
:1007600080310B2082312000AF002F08C600EA2B19
:100770002C080A3EAF0000302D3DB0004A0830067C
:10078000031DC42B49082F06031DCF2BFF308031DA
:100790000B2082312000AF002F08C700EA2B2C0865
:1007A0000B3EAF0000302D3DB0004A083006031D5F
:1007B000DB2B49082F06031DE62BFF3080310B2071
:1007C00082312000AF002F08C800EA2BFF308031B3
:1007D0000B20823101302000C9070030CA3D0230B1
:1007E0004A02003003194902031C342BFF308031C8
:1007F0000B208231FF3080310B20823122000E1518
:10080000FF3080310B20823120004408AF00B0015E
:10081000B101B2011830AF35B00DB10DB20D890B79
:100820000B2C4308B300B401B501B6011030B33549
:10083000B40DB50DB60D890B172C4208B700B801E1
:10084000B901BA010830B735B80DB90DBA0D890B29
:10085000232C4108BB00BC01BD01BE013B08B7040D
:100860003C08B8043D08B9043E08BA043708B3048C
:100870003808B4043908B5043A08B6042F0833041C
:100880002100A4002000300834042100A50020002D
:10089000310835042100A60020003208360421006A
:1008A000A70020004808AF00B001B101B201183024
:1008B000AF35B00DB10DB20D890B582C4708B30000
:1008C000B401B501B6011030B335B40DB50DB60D98
:1008D000890B642C4608B700B801B901BA01083089
:1008E000B735B80DB90DBA0D890B702C4508BB0092
:1008F000BC01BD01BE013B08B7043C08B8043D087B
:10090000B9043E08BA043708B3043808B4043908F7
:10091000B5043A08B6042F0833042100A0002000D3
:10092000300834042100A1002000310835042100E2
:10093000A2002000320836042100A300013020006C
:10094000AF000030B0000030B1000030B200210034
:1009500020082000B300210021082000B40021005D
:1009600022082000B500210023082000B60009302D
:10097000B636B50CB40CB30C890BB82C3308AF07E2
:100980003408B03D3508B13D3608B23D320821008B
:10099000A300200031082100A2002000300821001F
:1009A000A10020002F082100A00008000030200036
:1009B000A3000030A2000030A1000030A000FF30F2
:1009C000AC002C08A4001130803174208431200048
:1009D000AD00AE012D08BC002E08BD003C083D0452
:1009E0000319F62C22008C140C150C16FF308031E4
:1009F0000B208431FE3A031DF62C2000CE01CF01DE
:100A000002304F02003003194E020318572DC63032
:100A10004E06031D172D4F03031D172DFF30803188
:100A20000B2084312000AC002C08C2004B2DC730B5
:100A30004E06031D272D4F03031D272DFF30803148
:100A40000B2084312000AC002C08C3004B2DC83093
:100A50004E06031D372D4F03031D372DFF30803108
:100A60000B2084312000AC002C08C4004B2DC93071
:100A70004E06031D472D4F03031D472DFF308031C8
:100A80000B2084312000AC002C08C5004B2DFF301A
:100A900080310B20843101302000CE070030CF3D63
:100AA00002304F02003003194E02031C072DFF30A5
:100AB00080310B208431FF3080310B208431FF30B6
:100AC00080310B20843120004508AC00AD01AE011F
:100AD000AF011830AC35AD0DAE0DAF0D890B6A2DE1
:100AE0004408B000B101B201B3011030B035B10D0E
:100AF000B20DB30D890B762D4308B400B501B601D4
:100B0000B7010830B435B50DB60DB70D890B822D80
:100B10004208B800B901BA01BB013808B404390869
:100B2000B5043A08B6043B08B7043408B0043508E5
:100B3000B1043608B2043708B3042C083004E200CC
:100B40002D083104E3002E083204E4002F0833049A
:100B5000E5006C08F0006D08F100F201F301650892
:100B6000F7006408F6006308F5006208F4008031BD
:100B70004520843173082000A3007208A200710888
:100B8000A1007008A000FF30AC002C08A4001130B8
:100B90008031742084312000AD00AE012D08BC00EE
:100BA0002E08BD00FF3080310B208431FE3A031D3A
:100BB000D22D2000CE01CF0102304F0200300319A8
:100BC0004E020318B72E0B304E064F04031DF12DB5
:100BD000FF3080310B2084312000AC002C08BE0097
:100BE000AB2E0C304E064F04031DFF2DFF3080311D
:100BF0000B2084312000AC002C08BF00AB2E0D3040
:100C00004E064F04031D0D2EFF3080310B20843122
:100C10002000AC002C08EE00AB2E0E304E064F0428
:100C2000031D1B2EFF3080310B2084312000AC00CF
:100C30002C08C000AB2E0F304E064F04031D292E8A
:100C4000FF3080310B2084312000AC002C08C10023
:100C5000AB2E10304E064F04031D372EFF3080316F
:100C60000B2084312000AC002C08EA00AB2E24308D
:100C70004E064F04031D452EFF3080310B2084317A
:100C80002000AC002C08C600AB2E25304E064F04C9
:100C9000031D532EFF3080310B2084312000AC0027
:100CA0002C08C700AB2E26304E064F04031D612EC4
:100CB000FF3080310B2084312000AC002C08C800AC
:100CC000AB2E27304E064F04031D6F2EFF308031B0
:100CD0000B2084312000AC002C08C900AB2E2C3036
:100CE0004E064F04031D7D2EFF3080310B208431D2
:100CF0002000AC002C08CA00AB2E2D304E064F044D
:100D0000031D8B2EFF3080310B2084312000AC007E
:100D10002C08CB00AB2E2E304E064F04031D992E0F
:100D2000FF3080310B2084312000AC002C08CC0037
:100D3000AB2E2F304E064F04031DA72EFF308031FF
:100D40000B2084312000AC002C08CD00AB2EFF30EE
:100D500080310B20843101302000CE070030CF3DA0
:100D600002304F02003003194E02031CE32DFF3006
:100D700080310B208431FF3080310B208431FF30F3
:100D800080310B20843120003F08AC00AD012C08DD
:100D9000AD00AC012C083E04E8002D08E900410834
:100DA000AC00AD012C08AD00AC012C084004E600FD
:100DB0002D08E7004D08AC00AD01AE01AF011830C1
:100DC000AC35AD0DAE0DAF0D890BE02E4C08B0006B
:100DD000B101B201B3011030B035B10DB20DB30D98
:100DE000890BEC2E4B08B400B501B601B7010830F1
:100DF000B435B50DB60DB70D890BF82E4A08B800FD
:100E0000B901BA01BB013808B4043908B5043A087D
:100E1000B6043B08B7043408B0043508B1043608FA
:100E2000B2043708B3042C0830042100A8002000C5
:100E30002D0831042100A90020002E0832042100D1
:100E4000AA0020002F0833042100AB00200049082D
:100E5000AC00AD01AE01AF011830AC35AD0DAE0D3B
:100E6000AF0D890B2D2F4808B000B101B201B301BD
:100E70001030B035B10DB20DB30D890B392F4708C5
:100E8000B400B501B601B7010830B435B50DB60DE3
:100E9000B70D890B452F4608B800B901BA01BB014F
:100EA0003808B4043908B5043A08B6043B08B70456
:100EB0003408B0043508B1043608B2043708B30466
:100EC0002C0830042100AC0020002D083104210042
:100ED000AD0020002E0832042100AE0020002F08B3
:100EE00033042100AF0020006208AC006308AD00AD
:100EF0006408AE006508AF006608B0006708B1007E
:100F0000B201B3016A08B400B501B601B7013708F0
:100F1000F3003608F2003508F1003408F000210033
:100F20002F08F7002E08F6002D08F5002C08F40015
:100F300080314520843170082000B0077108B13D30
:100F40007208B23D7308B33D3008AC073108AD3DBF
:100F50003208AE3D3308AF3D2F08E1002E08E00017
:100F60002D08DF002C08DE00FE3021002807F000ED
:100F7000FF30293DF100FF302A3DF200FF302B3DCC
:100F8000F30020006E08AC00AD01AE01AF012F08E8
:100F9000F7002E08F6002D08F5002C08F40080312B
:100FA0004520700820005E07B00071085F3DB10069
:100FB0007208603DB2007308613DB3003308210040
:100FC000B300200032082100B200200031082100C7
:100FD000B100200030082100B00008005E3084001D
:100FE0000030850011308F31F2278731A030840026
:100FF0000030850018308F31F22720008031E22840
:101FE400640080010131890BF32F00344030240058
:0C1FF40094002A30950013309200080081
:020000040001F9
:06000E00FC3FFF3E9F3F96
:00000001FF
