:040000008031222801
:100008007E14803120007F08FB000B1F1D28210073
:10001800911D15282000911D152887311B27803137
:100028001D282100901D1D282000901D1D288131AC
:1000380090217B082000FF007E10090080312428D1
:10004800F001F101F201F301F401F50140308400FF
:10005800003085001330873105277E10200080315D
:1000680035288731112780318431AB24803186319E
:10007800AF2680318B130B1301308431E724803194
:10008800D0302000B100C930890B4828B10B48286E
:1000980000322000BF01BD01BE01B501B601B701A4
:1000A800B801B901BA01B401BB01BC0185312025F1
:1000B80080312000B1003108BF0085314C258031E6
:1000C8002000B1003108BD0085317825803120003D
:1000D800B1003108BE003F08803EB1003108BF00C2
:1000E8000430B1003108A000A101A10A3F088631FF
:1000F800612680312000B2003208B5000330B1001B
:100108003108A0000530B2003208A1003F0886314E
:10011800612680312000B3003308B6000430B100F6
:100128003108A000A101A10A3D088631612680316D
:100138002000B2003208B7000330B1003108A00037
:100148000530B2003208A1003D08863161268031B1
:100158002000B3003308B8000430B1003108A00013
:10016800A101A10A3E088631612680312000B20033
:100178003208B9000230B1003108A0000530B200E1
:100188003208A1003E088631612680312000B30084
:100198003308BA003F0886312B2680312000B10091
:1001A8003108B4003D0886312B2680312000B1008B
:1001B8003108B4003E0886312B2680312000B1007A
:1001C8003108B4003B08031D4D290630B100310841
:1001D800A300A401A40A36088531CD2580318431D5
:1001E8005724803107302000B1003108A300A40152
:1001F800A40A35088531CD258031843157248031D2
:1002080003302000B1003108A300A401A40A380873
:100218008531CD2580318431572480310430200048
:10022800B1003108A300A401A40A37088531CD25FF
:1002380080318431572480312000A301A401A40A0D
:100248003A088531CD25803184315724803120000A
:10025800A301A30AA401A40A39088531CD25803158
:1002680084315724803102302000B1003108A300C6
:10027800A401A40A3A308431572480310530200083
:10028800B1003108A300A401A40A3A3084315724EC
:10029800803120008E1E5429BB01BB0A8E1A5229B8
:1002A8003B03031D5A2803302000B2000830B10078
:1002B8007730890B5D29B10B5D29B20B5D292000D0
:1002C8008E1E7E290130B1003108BC073C03031D96
:1002D80070298231BE228031023020003C06031D85
:1002E8007C2901308431E72480312000BB01BC0126
:1002F8008E1A7C290E1E86298331FF238031823194
:10030800BE22803120008E1D5A2883319F238031E0
:100318008231BE2280315A28200090112400951F76
:10032800B32A9513F3012000C70108002000C21862
:1003380008004108F7007708C700410886008701D0
:100348000108F7007708F200410886008701413F5D
:10035800F1000330F7007708C1074108533A031D3D
:10036800B9295030F7007708C1004210410840060B
:100378000319C214240016140230F7007708F3009A
:100388000800240096140230F7007708F3000800EC
:100398002400161FD8290130F70077082000C40769
:1003A80004308731172708007508F8007408F7002B
:1003B800F836F70C770824009100741CE8290B30F4
:1003C800F7007708F30008000330F7007708F30018
:1003D80008002400161FF9290130F70077082000CB
:1003E800C407043087311727080096147508F800E9
:1003F8007408F7007808F700F80106307705F90067
:1004080000307805FA00F0307904F40000307A04FE
:10041800F50074142000C501C50A0230F7007708FA
:10042800F30008002000450303192B2A71088600F1
:100438008701403FF400413FF500710886008701BD
:10044800433FF000710886008701423FC6007408E8
:1004580024009100741C352A0530F7007708F30052
:1004680008000330F7007708F30008002400161F7F
:10047800482A0130F70077082000C4072400161323
:10048800053087311727080001302000C602460AC8
:10049800031D612A0430F7007708F1070130F202E2
:1004A800031D5A2A003087311727080024009614A4
:1004B8000230F7007708F30008007008860087010B
:1004C8000108240091000130F7007708F0070800C0
:1004D8002400161F7A2A0130F70077082000C40785
:1004E80004308731172724001613080096150830A2
:1004F800F7007708F30008000830F7007708F300E2
:1005080024009615080024001108F70070088600DA
:100518008701770881000130F7007708F00701307C
:100528002000C60203199F2A240096120630F700FD
:100538007708F300A32A240096168631BF262400E4
:100548001616080000308731172708000130F70019
:1005580077082000C407063087311727080073087A
:1005680084000C3004020318AA2A86310435493E57
:10057800820008002000AF01B001AB01AC01AD0161
:10058800AE0101308431E72482312000A301A30A9F
:10059800A401A40A52308431572482310230200049
:1005A800A8002808A300A401A40A453084315724D0
:1005B800823103302000A8002808A300A401A40A5F
:1005C800473084315724823104302000A80028089D
:1005D800A300A401A40A20308431572482310530B5
:1005E8002000A8002808A300A401A40A48308431E8
:1005F8005724823106302000A8002808A300A4014F
:10060800A40A523084315724823185314C258231F5
:100618002000A8002808AF00853178258231200005
:10062800A8002808B0000430A8002808A000A101EC
:10063800A10A2F088631612682312000A9002908E5
:10064800AC000330A8002808A0000530A90029083C
:10065800A1002F088631612682312000AA002A08CD
:10066800AB000430A8002808A000A101A10A3008A6
:100678008631612682312000A9002908AE000230A7
:10068800A8002808A0000530A9002908A100300802
:100698008631612682312000AA002A08AD00053083
:1006A800A8002808A3000230A9002908A4002B08E4
:1006B8008531CD258231843157248231063020009E
:1006C800A8002808A3000230A9002908A4002C08C3
:1006D8008531CD2582318431572482310230200082
:1006E800A8002808A3000230A9002908A4002D08A2
:1006F8008531CD2582318431572482310330200061
:10070800A8002808A3000230A9002908A4002E0880
:100718008531CD258231843157248231043020003F
:10072800A8002808A3000230A9002908A4003A302C
:100738008431572408002000AA01A801A9018531A5
:10074800782583312000A5002508AA000430A500DB
:100758002508A000A101A10A2A0886316126833153
:100768002000A6002608A9000230A5002508A00040
:100778000530A6002608A1002A08863161268331A3
:100788002000A7002708A800AA012908013EA50003
:100798002508A9000A302902031CD82BA90128081A
:1007A800013EA5002508A80003302802031CE62BFB
:1007B80004302906031DE62BA8012908013EA500DF
:1007C8002508A9002A082807A5002508AA002A083C
:1007D800A5000330A535FF3E031DEE2B2535A600E9
:1007E8002608AA002A082907A5002508AA002A0819
:1007F80086310D2608002000AA01A801A90185312B
:100808004C2583312000A5002508AA000430A50046
:100818002508A000A101A10A2A0886316126833192
:100828002000A6002608A9000330A5002508A0007E
:100838000530A6002608A1002A08863161268331E2
:100848002000A7002708A800AA012908013EA50042
:100858002508A9000A302902031C382CA9012808F8
:10086800013EA5002508A80007302802031C3E2CDD
:10087800A801A9012A082807A5002508AA002A080E
:10088800A5000330A535FF3E031D462C2535A600DF
:100898002608AA002A082907A5002508AA002A0868
:1008A8008531EF2508002000A60002302406031D2C
:1008B800612C2830A5002508A307A70123082702D3
:1008C8000318702C14308431E7248431013020005F
:1008D800A5002508A707622C8631DD26843106305D
:1008E8002000A5003030890B772CA50B772C000051
:1008F80078308631CF26843106302000A50030308C
:10090800890B842CA50B842C000040308631CF261F
:10091800843106302000A5003030890B912CA50BBE
:10092800912C0000200026088631CF26843106301D
:100938002000A5003030890B9F2CA50B9F2C0000B0
:100948008631EE26843102308431E7240800200005
:10095800A101A20121000D132000A101A20122087A
:10096800803AA00080302002031DBC2C09302102EF
:100978000318D12C22000D170D1301302000A107F8
:100988000030A23D2208803AA00080302002031DDA
:10099800CF2C09302102031CBE2C21000D170D1687
:1009A80023008D0122000D160D17803024009400BD
:1009B80028309500960127309200210095011030CB
:1009C80024008D0008002000A2008631DD26843135
:1009D80006302000A1003030890BF02CA10BF02C40
:1009E800000078308631CF26843106302000A100FF
:1009F8003030890BFD2CA10BFD2C00000030863116
:100A0800CF26843106302000A1003030890B0A2D12
:100A1800A10B0A2D0000200022088631CF26843140
:100A280006302000A1003030890B182DA10B182D9D
:100A380000008631EE2608002000A3018631DD265D
:100A48008531DE308631CF2685312400161B292DCD
:100A580000308631CF2685312400161B302D863193
:100A6800E6268531DF308631CF2685312400161BF6
:100A78003A2D86318B2685312000A2002208A3005A
:100A880087310B2785318631EE26200023080800A0
:100A98002000A3018631DD268531DE308631CF2660
:100AA80085312400161B552D01308631CF2685311E
:100AB8002400161B5C2D8631E6268531DF30863111
:100AC800CF2685312400161B662D86318B2685316D
:100AD8002000A2002208A30087310B278531863128
:100AE800EE262000230808002000A3018631DD2619
:100AF8008531DE308631CF2685312400161B812DC5
:100B080002308631CF2685312400161B882D863188
:100B1800E6268531DF308631CF2685312400161B45
:100B2800922D86318B2685312000A2002208A30051
:100B380087310B2785318631EE26200023080800EF
:100B480022008C018D018E01373021008C00F0309D
:100B58008D00FF308E00C73023008E00A0308D003E
:100B680017308C0024008D018C011C308E00210070
:100B7800951325008C018D018E010C303C00A100DD
:100B880010303D009E0011309C000E303C00A0004B
:100B980008002000A000E42D3030080031300800A3
:100BA800323008003330080034300800353008008F
:100BB800363008003730080038300800393008006F
:100BC800200884000A30040203180800863104351E
:100BD800773E820008002000A1008631DD2685319D
:100BE800DE308631CF2685312400161BF82D0130E2
:100BF8008631CF2685312400161BFF2D20002108C1
:100C08008631CF2685312400161B072E8631EE2625
:100C180008002000A1008631DD268631DE308631CD
:100C2800CF2686312400161B162E02308631CF2699
:100C380086312400161B1D2E200021088631CF2660
:100C480086312400161B252E8631EE26080020004A
:100C5800A800A601A7012808A4000430A436890B1F
:100C6800322E24080F39A5002508A60028080F39B8
:100C7800A4002408A7000A30A4002408A00026081D
:100C880086319D2620002707080081319A29813165
:100C9800C5298231162A82313A2A8231A62A82311E
:100CA8006C2A8231802A8231A62A8231872A8231AF
:100CB800AA2A8131CC298131ED292000A4002408F9
:100CC800A2002108FF3E890A6A2EA236890B692EE6
:100CD8000130A300200A712EA335890B702E23083A
:100CE800FF3E220508008531D02D8531D22D853172
:100CF800D42D8531D62D8531D82D8531DA2D853104
:100D0800DC2D8531DE2D8531E02D8531E22D8631D2
:100D1800F6268631240096158631F626863124007B
:100D28009619932E11082000A0002008A100210880
:100D380008002000A300A201231CA62E2008A10061
:100D48002108A2070310A00D0310A30C2308031DFC
:100D5800A02E2208080038308431E72486310C3070
:100D68008431E724863106308431E72486310C301B
:100D78008431E72408000430F6007608F1070130D2
:100D8800F202031DCC2E0430F6007608F3000800AA
:100D9800F301F30A08002000A0008631F626863108
:100DA80020002008240091002000901190190800CC
:100DB800DA2E8631F6268631013024009600161C7C
:100DC8000800E32E8631F626863124009614961CF8
:100DD8000800EB2E8631F626863124001615161DDE
:100DE8000800F32E24001419F62E16081F390319CB
:100DF8000800F62E7A302100990098012200960109
:100E08000800640080010131890B062F0034863107
:100E1800F62624009616161608008531A425873173
:100E28008631FE26080024001615F301080020006C
:040E3800911108000C
:020000040001F9
:06000E00FC3FFF3E9F3F96
:00000001FF
