:040000008031222801
:100008007E14803120007F08F1000B1F1D2821007D
:10001800111E15282000111E15288231002280315A
:100028001D282100911E1D282000911E1D288231A7
:10003800562271082000FF007E1009008031242814
:10004800FA01FB012000EC01ED01EE01A030840073
:100058000030850010308231F82280312030840051
:100068000130850040308231F8227E102000813135
:100078001C292000E9012030860001308700293042
:100088008400003085004030F90016001A00F90B92
:10009800492822000E148231D822803140302000B5
:1000A800A0000030A10029308031B220803120002A
:1000B8002008F9007908E900E830F4000330F50079
:1000C8008131B921803182318B228031403020004A
:1000D800A0000030A10029308031B22080312000FA
:1000E8002008F9007908E900813151218031403038
:1000F8002000A0000030A10029308031B2208031DA
:1001080020002008F9007908E90081318521803133
:1001180040302000A0000030A10029308031B220FA
:10012800803120002008F9007908E9008231A322F3
:10013800803140302000A0000030A10029308031FB
:10014800B220803120002008F9007908E900E83061
:10015800F4000330F5008131B92108002000A8001F
:10016800A401A501A601A7010530F4000030F5009F
:100178008131B921803101302000A6070030A73D28
:100188000A3026062704031DCE28FF30A000FF30C2
:10019800A10008007A08031D1329B82882311E22FD
:1001A80080312000A20024082807A3002308860025
:1001B8008701220881000130A4070030A53D2108ED
:1001C8002506031DE928200824060319F928022911
:1001D80082311E2280317A08031DF9280530F40087
:1001E8000030F5008131B92180317A08031DEC28EF
:1001F800FE302000A000FF30A10008000130F4000C
:100208000030F5008131B92180317A08031D1329A6
:100218000430F4000030F5008131B92180317A08CA
:10022800031DD22820002708A1002608A0000800E6
:100238008231E42281318B170B172100B301200092
:100248008E120C118C108C122100B401B501803172
:100258003D20813183310A2381312000EA00EB01FE
:100268006A082100B40020006B082100B500243082
:1002780034063504031D2E29203020008E06043054
:100288008C0602308C0620308C06E830F4000330EF
:10029800F5008131B92181312E2953308131DF2197
:1002A800813153308131DF2181312C308131DF219F
:1002B800813133308131DF21813130308131DF21AB
:1002C800813130308131DF21813130308131DF219E
:1002D800813130308131DF21813130308131DF218E
:1002E800813130308131DF21813130308131DF217E
:1002F80081310D308131DF2181310A308131DF21B7
:10030800080053308131DF21813152308131DF21C2
:1003180081312C308131DF21813133308131DF214E
:10032800813132308131DF21813130308131DF213B
:10033800813130308131DF21813130308131DF212D
:10034800813130308131DF21813130308131DF211D
:10035800813130308131DF2181310D308131DF2130
:1003680081310A308131DF2108008331072381314F
:100378008231F022813120001110F701F80178084C
:10038800803AF6007508803A7602031DCD29740874
:1003980077020318DC292000111CCF298231F022B2
:1003A8008131200011100130F7070030F83DC329D2
:1003B800833104230800F300210032080319E029DF
:1003C800111AEA29730823009A00FD2911127308EB
:1003D800F2007B08A83E8600870172088100013080
:1003E800F2007208FB0708307B020318FB0101309A
:1003F800B202210011160800083021003202031849
:100408001C2A20006E08A83E8600870101082300E8
:100418009A000130F00070082000EE0708306E02E4
:100428000318EE010130F00070082100B20708003F
:1004380011120800F3017A0803191F2A20006C081A
:10044800A03E860087010108F2007208F30001301F
:10045800F2007208EC0708306C020318EC01210066
:1004680091120130FA0291167308080021009112C6
:100478001112083023009F0090309D0024309E0008
:1004880022309B009C01FB012000EE010830F200A5
:1004980072082100B2002000ED01EC01FA012100F0
:1004A8009116080023009D1C5B2A1D121D161908B1
:1004B800F00020006D08A03E8600870170088100CA
:1004C8000130F0007008ED0708306D020318ED01E7
:1004D8000130F0007008FA07080022008C018D0135
:1004E8008E01113021008C0070308D00DE308E00BE
:1004F800CF3023008E00D0308D0017308C002400C0
:100508008D018C012100951722009D0108005330B0
:100518008131DF21823146308131DF2182312C3037
:100528008131DF21823131308131DF2182310D305B
:100538008131DF2182310A308131DF2108005230D8
:100548008131DF2182312C308131DF21823131301C
:100558008131DF2182310D308131DF2182310A3052
:100568008131DF21080020009901F03097006030C8
:10057800960017082100B100200016082100B000DD
:10058800200011100130980008002000181DD32AFF
:10059800181073089700720896001814080073085A
:1005A80097007208960008002B308131DF218231D4
:1005B8000D308131DF2182310A308131DF2108009D
:1005C8008231712282318231FE2282318231B72218
:1005D800823182313A22080021003108F3003008C4
:1005E800F2008231C9220800640080010131890BC0
:1005F800F92A003478302100990022009601080079
:1006080020001810080020001814080023001908FA
:020618000800D8
:020000040001F9
:04000E00E4FFFFFF0D
:00000001FF
