:040000008031222801
:100008007E14803120007F08F1000B1F1D2821007D
:10001800111E15282000111E15288231AE228031AC
:100028001D282100911E1D282000911E1D288331A6
:10003800042371082000FF007E1009008031242865
:10004800FA01FB012000EC01ED01EE01A030840073
:100058000030850010308331E72380312030840060
:100068000130850040308331E7237E102000813144
:100078006D292000E90120308600013087002930F1
:100088008400003085004030F90016001A00F90B92
:10009800492822000E148331862380314030200005
:1000A800A0000030A10029308031B220803120002A
:1000B8002008F9007908E900E830F4000330F50079
:1000C8008231492280318331392380314030200008
:1000D800A0000030A10029308031B22080312000FA
:1000E8002008F9007908E9008131E12180314030A8
:1000F8002000A0000030A10029308031B2208031DA
:1001080020002008F9007908E900823115228031A1
:1001180040302000A0000030A10029308031B220FA
:10012800803120002008F9007908E9008331512343
:10013800803140302000A0000030A10029308031FB
:10014800B220803120002008F9007908E900E83061
:10015800F4000330F5008231492208002000A8008D
:10016800A401A501A601A7010530F4000030F5009F
:1001780082314922803101302000A6070030A73D96
:100188000A3026062704031DCE28FF30A000FF30C2
:10019800A10008007B08031D1329B8288231CC224E
:1001A80080312000A20024082807A3002308860025
:1001B8008701220881000130A4070030A53D2108ED
:1001C8002506031DE928200824060319F928022911
:1001D8008231CC2280317B08031DF9280530F400D8
:1001E8000030F5008231492280317B08031DEC285C
:1001F800FE302000A000FF30A10008000130F4000C
:100208000030F5008231492280317B08031D132913
:100218000430F4000030F5008231492280317B0837
:10022800031DD22820002708A1002608A0000800E6
:1002380083319E238131DE30833192238131240042
:10024800161B232900308331922381312400161B89
:100258002A2980308331922381312400161B3129C9
:100268008331AF23813183319E238131DE30833165
:10027800922381312400161B3E29013083319223B9
:1002880081312400161B452948308331922381315E
:100298002400161B4C298331AF23813183319E23DF
:1002A8008131DE308331922381312400161B592994
:1002B80002308331922381312400161B60291430C7
:1002C8008331922381312400161B67298331AF23A0
:1002D80008008231902281318B170B172100B3015E
:1002E80020008E120C118C108C122100B401B50163
:1002F8008131A821813181311C21813180313D201A
:1003080081318331F92381312000EA00EB016A0849
:100318002100B40020006B082100B5002430340609
:100328003504031D8529203020008E0604308C06F4
:1003380002308C0620308C06E830F4000330F500DB
:100348008231492281318529F301F40121000D13FD
:10035800F301F4017408803AF20080307202031D40
:10036800B729093073020318CB2922000D170D1382
:100378000130F3070030F43D7408803AF200803011
:100388007202031DC92909307302031CB92921000F
:100398000D170D1623008D0122000D160D17803044
:1003A80024009400283095009601273092002100FF
:1003B8009501103024008D000800533082316F22DF
:1003C8008131533082316F2281312C3082316F225A
:1003D8008131333082316F228131303082316F2266
:1003E8008131303082316F228131303082316F2259
:1003F8008131303082316F228131303082316F2249
:100408008131303082316F228131303082316F2238
:1004180081310D3082316F2281310A3082316F2271
:100428000800533082316F228231523082316F227C
:1004380082312C3082316F228231333082316F2207
:100448008231323082316F228231303082316F22F4
:100458008231303082316F228231303082316F22E6
:100468008231303082316F228231303082316F22D6
:100478008231303082316F2282310D3082316F22E9
:1004880082310A3082316F2208008331F6238231AB
:100498008331A723823120001110F701F801780871
:1004A800803AF6007508803A7602031D5D2A7408C2
:1004B800770203186C2A2000111C5F2A8331A723B6
:1004C8008231200011100130F7070030F83D532A1F
:1004D8008331F3230800F300210032080319702A3E
:1004E800111A7A2A730823009A008D2A11127308A8
:1004F800F2007A08A83E8600870172088100013060
:10050800F2007208FA0708307A020318FA0101307B
:10051800B20221001116080083311F238231833172
:10052800ED2382318331FC2382318331DF23823111
:100538008331D72382318331C72382318331CF235B
:1005480082318331BF238231833165238231823105
:10055800E82208000830210032020318CA2A2000C5
:100568006E08A83E86008701010823009A00013022
:10057800F00070082000EE0708306E020318EE0144
:100588000130F00070082100B207080011120800BD
:10059800F3017B080319CD2A20006C08A03E8600D1
:1005A80087010108F2007208F3000130F2007208B6
:1005B800EC0708306C020318EC012100911201309D
:1005C800FB029116730808002100911211120830DD
:1005D80023009F0090309D0024309E0022309B0015
:1005E8009C01FA012000EE010830F2007208210097
:1005F800B2002000ED01EC01FB012100911608007A
:1006080023009D1C092B1D121D161908F00020003F
:100618006D08A03E86008701700881000130F00057
:100628007008ED0708306D020318ED010130F00085
:100638007008FB07080022008C018D018E0119301B
:1006480021008C0070308D00D4308E00CF30230014
:100658008E00D0308D0017308C0024008D018C0165
:100668002100951722009D010800533082316F2226
:100678008331463082316F2283312C3082316F22B0
:100688008331313082316F2283310D3082316F22D4
:1006980083310A3082316F220800523082316F2252
:1006A80083312C3082316F228331313082316F2295
:1006B80083310D3082316F2283310A3082316F22CB
:1006C800080020009901F030970060309600170864
:1006D8002100B100200016082100B00020001110F0
:1006E8000130980008002000181D812B181073088D
:1006F800970072089600181408007308970072088B
:10070800960008002B3082316F2283310D30823100
:100718006F2283310A3082316F220800F200833160
:10072800B723833172082400910020009111911998
:1007380008009B2B8331B7238331013024009600B6
:10074800161C0800A42B21003108F3003008F20021
:100758008331772308008331B723833124001615AA
:10076800161D0800B42B24001419B72B16081F39BE
:1007780003190800B72BFF3020009B009A01911045
:1007880004309C000800C0302C009C007F309B0087
:10079800C0309A000800C0302C0099007F309800C3
:1007A800C03097000800C0302C0096007F309500BC
:1007B800C03094000800C0302C0093007F309200B5
:1007C800C03091000800640080010131890BE82BDA
:1007D800003478302100990022009601080020009A
:1007E8001810080020001814080023001908080031
:0207F8000800F7
:020000040001F9
:04000E00E4FFFFFF0D
:00000001FF
