:040000008031222801
:100008007E14803120007F08F1000B1F1D2821007D
:10001800111E15282000111E15288231E02280317A
:100028001D282100911E1D282000911E1D288331A6
:10003800362371082000FF007E1009008031242833
:10004800FA01FB012000EC01ED01EE01A030840073
:1000580000308500103084312D2480312030840018
:1000680001308500403084312D247E1020008031FD
:10007800B2282000E90120308600013087002930AD
:100088008400003085004030F90016001A00F90B92
:10009800492822000E148331CC23803140302000BF
:1000A800A0000030A100293081311F2180312000BB
:1000B8002008F9007908E900E830F4000330F50079
:1000C80082317B22803183316B23803140302000A4
:1000D800A0000030A100293081311F21803120008B
:1000E8002008F9007908E900823113228031403074
:1000F8002000A0000030A100293081311F2180316B
:1001080020002008F9007908E9008231472280316F
:1001180040302000A0000030A100293081311F218B
:10012800803120002008F9007908E90083319723FD
:10013800803140302000A0000030A10029308131FA
:100148001F21803120002008F9007908E900E830F3
:10015800F4000330F50082317B2208008231C2228C
:1001680080318B170B172100B30120008E120C1160
:100178008C108C122100B401B5018131DA21803153
:1001880081318921803180313D2080318331832341
:100198008031E830F4000330F50082317B22803171
:1001A800833183238031E830F4000330F500823155
:1001B8007B228031833183238031E830F40003309F
:1001C800F50082317B22803184313F248031200048
:1001D800EA00EB016A082100B40020006B08210046
:1001E800B500243034063504031D0A2920302000C8
:1001F8008E0604308C0602308C0620308C06E830DF
:10020800F4000330F50082317B22803120000E1A81
:100218001B298E1624308231A12280310A30823186
:10022800A12280310D308231A1228031E8280E1EB2
:10023800E8288E12E8282000A800A401A501A6013C
:10024800A7010530F4000030F50082317B228131AE
:1002580001302000A6070030A73D0A3026062704F3
:10026800031D3B29FF30A000FF30A10008007A08D9
:10027800031D802925298231FE2281312000A20018
:1002880024082807A3002308860087012208810084
:100298000130A4070030A53D21082506031D562975
:1002A80020082406031966296F298231FE2281312C
:1002B8007A08031D66290530F4000030F500823104
:1002C8007B2281317A08031D5929FE302000A000C5
:1002D800FF30A10008000130F4000030F500823141
:1002E8007B2281317A08031D80290430F400003014
:1002F800F50082317B2281317A08031D3F292000D5
:100308002708A1002608A00008008331E4238131D2
:10031800DE308331D82381312400161B9029003028
:100328008331D82381312400161B972980308331EB
:10033800D82381312400161B9E298331F52381316E
:100348008331E4238131DE308331D82381312400A5
:10035800161BAB2901308331D82381312400161BA9
:10036800B22948308331D82381312400161BB9299A
:100378008331F52381318331E4238131DE308331C8
:10038800D82381312400161BC62902308331D82393
:1003980081312400161BCD2914308331D8238131B3
:1003A8002400161BD4298331F5230800F301F40136
:1003B80021000D13F301F4017408803AF200803033
:1003C8007202031DE929093073020318FD2922006E
:1003D8000D170D130130F3070030F43D7408803A0F
:1003E800F20080307202031DFB2909307302031CDE
:1003F800EB2921000D170D1623008D0122000D1683
:100408000D1780302400940028309500960127307D
:10041800920021009501103024008D00080053300F
:100428008231A122823153308231A12282312C3093
:100438008231A122823133308231A122823130309F
:100448008231A122823130308231A1228231303092
:100458008231A122823130308231A1228231303082
:100468008231A122823130308231A1228231303072
:100478008231A12282310D308231A12282310A30AB
:100488008231A122080053308231A12282315230B8
:100498008231A12282312C308231A1228231333043
:1004A8008231A122823132308231A1228231303030
:1004B8008231A122823130308231A1228231303022
:1004C8008231A122823130308231A1228231303012
:1004D8008231A122823130308231A12282310D3025
:1004E8008231A12282310A308231A122080084316E
:1004F8003C2482318331ED23823120001110F70131
:10050800F8017808803AF6007508803A7602031DEB
:100518008F2A7408770203189E2A2000111C912A3A
:100528008331ED238231200011100130F7070030AC
:10053800F83D852A843139240800F3002100320867
:100548000319A22A111AAC2A730823009A00BF2A99
:1005580011127308F2007B08A83E86008701720812
:1005680081000130F2007208FB0708307B02031893
:10057800FB010130B202210011160800833151231A
:10058800823184313324823184314224823184316E
:100598002524823184311D24823184310D24823115
:1005A8008431152482318431052482318331AB238F
:1005B800823183311A2308000830210032020318DF
:1005C800FC2A20006E08A83E860087010108230047
:1005D8009A000130F00070082000EE0708306E0223
:1005E8000318EE010130F00070082100B20708007E
:1005F80011120800F3017A080319FF2A20006C0879
:10060800A03E860087010108F2007208F30001305D
:10061800F2007208EC0708306C020318EC012100A4
:1006280091120130FA029116730808002100911204
:100638001112083023009F0090309D0024309E0046
:1006480022309B009C01FB012000EE010830F200E3
:1006580072082100B2002000ED01EC01FA0121002E
:100668009116080023009D1C3B2B1D121D1619080E
:10067800F00020006D08A03E860087017008810008
:100688000130F0007008ED0708306D020318ED0125
:100698000130F0007008FA07080022008C018D0173
:1006A8008E01193021008C0070308D00D4308E00FE
:1006B800CF3023008E00D0308D0017308C002400FE
:1006C8008D018C012100951722009D0108005330EF
:1006D8008231A122833146308231A12283312C30EC
:1006E8008231A122833131308231A12283310D3010
:1006F8008231A12283310A308231A12208002130BF
:100708008231A12283312C308231A12283313130D0
:100718008231A12283310D308231A12283310A3006
:100728008231A122080052308231A12283312C303B
:100738008231A122833131308231A12283310D30BF
:100748008231A12283310A308231A122080020009F
:100758009901F03097006030960017082100B10029
:10076800200016082100B000200011100130980068
:1007780008002000181DC72B18107308970072086E
:10078800960018140800730897007208960008006D
:100798002B308231A12283310D308231A122833165
:1007A8000A308231A1220800F2008331FD2383310F
:1007B8007208240091002000911191190800E12B82
:1007C8008331FD238331013024009600161C080074
:1007D800EA2B21003108F3003008F2008331BD23F1
:1007E80008008331FD23833124001615161D0800E7
:1007F800FA2B24001419FD2B16081F3903190800B9
:10080800FD2BFF3020009B009A01911004309C00C2
:100818000800C0302C009C007F309B00C0309A003C
:10082800080080302C0099007F309800C030970075
:100838000800C0302C0096007F309500C03094002E
:100848000800C0302C0093007F309200C030910027
:100858000800640080010131890B2E2C00347830A7
:1008680021009900220096010800200018100800B5
:0E0878002000181408002300190808000800CA
:020000040001F9
:04000E00E4FFFFFF0D
:00000001FF
