:040000008031222801
:100008007E14803120007F08F0000B1F1D2821007E
:100018009219200092191D28210091192000911988
:100028001D282100911C1D282000911C1D288631A7
:10003800C02670082000FF007E10090080312428A7
:10004800FB01FC012000C101C2017E1020008031AB
:100058002D2886310C268031843145248031863123
:10006800962680318B130B132000A901AA01AB013E
:10007800AC01AD01AE010130853150258031D03061
:100088002000A600C930890B4728A60B4728003254
:100098008331A32380312000BA01BD01BB01BC011B
:1000A800B201B301B401B501B601B701AF01B001A6
:1000B800B101B801B9018431B42480312000A6000F
:1000C8002608BD008431DD2480312000A6002608E2
:1000D800BB008531062580312000A6002608BC001B
:1000E8003D08803EA6002608BD000430A60026086C
:1000F800F100F201F20A3D0886313A2680312000EB
:10010800A7002708B2000330A6002608F100053032
:10011800A7002708F2003D0886313A2680312000E2
:10012800A8002808B3000430A6002608F100F20150
:10013800F20A3B0886313A2680312000A7002708BA
:10014800B4000330A6002608F1000530A7002708F0
:10015800F2003B0886313A2680312000A8002808A2
:10016800B5000430A6002608F100F201F20A3C08A6
:1001780086313A2680312000A7002708B6000230D1
:10018800A6002608F1000530A7002708F2003C0861
:1001980086313A2680312000A8002808B7003D089B
:1001A8008531A42580312000A6002608AF003B0831
:1001B8008531A42580312000A6002608B0003C081F
:1001C8008531A42580312000A6002608B10004301E
:1001D800F1000030F2003A08A600A7012608F30053
:1001E8002708F4008331F423803171082C3E200065
:1001F800A0000130723DA1008531F3258031200037
:100208003A08A600A701A609A709A60A0319A70A7A
:100218002608C03EF1000330273DF200863124262F
:1002280080310A30F1000030F20020003A08A600C0
:10023800A7012608F3002708F4008331F42380314E
:1002480071080A3E2000A0000030723DA1008531EF
:10025800DA25803120003808031D96290630A600CB
:100268002608F300F401F40A330885312F2580317C
:1002780084317E24803107302000A6002608F30050
:10028800F401F40A320885312F25803184317E2427
:10029800803103302000A6002608F300F401F40A98
:1002A800350885312F25803184317E248031043012
:1002B8002000A6002608F300F401F40A340885316A
:1002C8002F25803184317E248031F301F401F40A32
:1002D8002000370885312F25803184317E248031F4
:1002E800F301F30AF401F40A2000360885312F25BA
:1002F800803184317E24803102302000A600260817
:10030800F300F401F40A3A3084317E248031053058
:100318002000A6002608F300F401F40A3A308431DC
:100328007E24803120000E189D29B801B80A0E1CC1
:100338009B293803031D5F2803302000A7000830DD
:10034800A6007730890BA629A60BA629A70BA629F4
:1003580020000E18C7290130A6002608B90739035E
:10036800031DB9298131D921803102302000390695
:10037800031DC52901308531502580312000B80181
:10038800B9010E1CC5298E18CF2983314B23803122
:100398008131D921803120000E195F288231EB226A
:1003A80080318131D92180315F282000A401A50145
:1003B800A001A101A201A30101308531502581319D
:1003C8001A30F800F830890BE729F80BE7290032D2
:1003D800F301F30AF401F40A523084317E248131A6
:1003E8000630F8003030890BF729F80BF72900326E
:1003F8000230F8007808F300F401F40A453084313B
:100408007E2481310630F8003030890B092AF80B38
:10041800092A00320330F8007808F300F401F40ADE
:10042800473084317E2481310630F8003030890B22
:100438001B2AF80B1B2A00320430F8007808F30056
:10044800F401F40A203084317E2481310630F8002A
:100458003030890B2D2AF80B2D2A00320530F80090
:100468007808F300F401F40A483084317E2481319D
:100478000630F8003030890B3F2AF80B3F2A00324B
:100488000630F8007808F300F401F40A5230843199
:100498007E2481310630F8003030890B512AF80B60
:1004A800512A00328431DD248131F8007808200097
:1004B800A400853106258131F80078082000A500C0
:1004C8000430F8007808F100F201F20A24088631B5
:1004D8003A268131F90079082000A1000330F8009C
:1004E8007808F1000530F9007908F200240886310F
:1004F8003A268131FA007A082000A0000430F8007A
:100508007808F100F201F20A250886313A2681318D
:10051800F90079082000A3000230F8007808F100FB
:100528000530F9007908F200250886313A2681312C
:10053800FA007A082000A2000530F8007808F300D5
:100548000230F9007908F400200885312F2581311F
:1005580084317E2481310630F8007808F3000230B7
:10056800F9007908F4002000210885312F25813110
:1005780084317E2481310230F8007808F30002309B
:10058800F9007908F4002000220885312F258131EF
:1005980084317E2481310330F8007808F30002307A
:1005A800F9007908F4002000230885312F258131CE
:1005B80084317E2481310430F8007808F300023059
:1005C800F9007908F4003A3084317E2408002000CC
:1005D800A201A001A101853106258231F600760825
:1005E8002000A2000430F6007608F100F201F20AB9
:1005F800220886313A268231F70077082000A100C8
:100608000230F6007608F1000530F7007708F200AE
:10061800220886313A268231F80078082000A000A6
:10062800A2012108013EF6007608A1000A30210245
:10063800031C242BA1012008013EF6007608A00027
:1006480003302002031C322B04302106031D322BF9
:10065800A0012108013EF6007608A1002208200723
:10066800F6007608A2002208F6000330F635FF3EB1
:10067800031D3A2B7635F7007708A20022082107D8
:10068800F6007608A2002208853188250800200097
:10069800A201A001A1018431DD248331F60076088E
:1006A8002000A2000430F6007608F100F201F20AF8
:1006B800220886313A268331F70077082000A10006
:1006C8000330F6007608F1000530F7007708F200ED
:1006D800220886313A268331F80078082000A000E5
:1006E800A2012108013EF6007608A1000A30210285
:1006F800031C842BA1012008013EF6007608A00007
:1007080007302002031C8A2BA001A1012208200720
:10071800F6007608A2002208F6000330F635FF3E00
:10072800031D922B7635F7007708A20022082107CF
:10073800F6007608A200220885316C25080086316B
:10074800CC268331DE308631B42683312400161B53
:10075800AA2B00308631B42683312400161BB12B16
:1007680080308631B42683312400161BB82B86319D
:10077800DD2683318631CC268331DE308631B426BE
:1007880083312400161BC52B01308631B4268331F2
:100798002400161BCC2B48308631B4268331240024
:1007A800161BD32B8631DD2683318631CC26833147
:1007B800DE308631B42683312400161BE02B02304C
:1007C8008631B42683312400161BE72B143086317A
:1007D800B42683312400161BEE2B8631DD26080053
:1007E800F701F21FFE2BF109F209F10A0319F20AC7
:1007F800F701F70AF41F092CF309F409F30A03199E
:10080800F40A0130F5007508F706F801F9017108D6
:1008180072040319382CF601F60AF21B1D2C01305C
:10082800F135F20D890B142C0130F5007508F60727
:10083800112C0130F835F90D890B1E2C7208740241
:10084800031D282C71087302031C2F2C7108F30256
:100858007208F43B78140130F236F10C890B302C15
:100868000130F602031D1D2C77080319402CF809E6
:10087800F909F80A0319F90A7908F2007808F10069
:100888000800F201F30121000D13F201F3017308CE
:10089800803AF10080307102031D542C0930720235
:1008A8000318682C22000D170D130130F2070030D1
:1008B800F33D7308803AF10080307102031D662C05
:1008C80009307202031C562C21000D170D16230047
:1008D8008D0122000D160D17803024009400283059
:1008E80095009601273092002100950110302400D0
:1008F8008D000800F60002307406031D872C28308E
:10090800F5007508F307F701730877020318952CAB
:1009180014308531502584310130F5007508F7070A
:10092800882C8631CC26843178308631B4268431BF
:100938002400161B9C2C40308631B42684312400B8
:10094800161BA32C76088631B42684312400161B86
:10095800AA2C8631DD2684310230853150250800E5
:10096800F4018631CC268431DE308631B4268431D8
:100978002400161BBC2C00308631B4268431240098
:10098800161BC32C8631D5268431DF308631B42638
:1009980084312400161BCD2C863163268431F30064
:1009A8007308F4008731052784318631DD26740801
:1009B8000800F4018631CC268431DE308631B42635
:1009C80084312400161BE52C01308631B42684318D
:1009D8002400161BEC2C8631D5268431DF30863175
:1009E800B42684312400161BF62C86316326843104
:1009F800F3007308F4008731052784318631DD263A
:100A080074080800F4018631CC268531DE30863141
:100A1800B42685312400161B0E2D02308631B426EB
:100A280085312400161B152D8631D5268531DF30FA
:100A38008631B42685312400161B1F2D8631632686
:100A48008531F3007308F400873105278531863135
:100A5800DD2674080800F100452D303008003130DB
:100A680008003230080033300800343008003530D0
:100A780008003630080037300800383008003930B0
:100A88000800710884000A3004020318080086313F
:100A980004354F3E82000800F2008631CC268531AD
:100AA80078308631B42685312400161B582D003045
:100AB8008631B42685312400161B5F2D72088631D5
:100AC800B42685312400161B662D8631DD260800E4
:100AD800F2008631CC268531DE308631B426853168
:100AE8002400161B742D01308631B426853124006C
:100AF800161B7B2D72088631B42685312400161BFF
:100B0800822D8631DD260800F2008631CC2685311B
:100B1800DE308631B42685312400161B902D023034
:100B28008631B42685312400161B972D720886312C
:100B3800B42685312400161B9E2D8631DD2608003B
:100B4800F900F701F8017908F5000430F536890B4A
:100B5800AA2D75080F39F6007608F70079080F39BD
:100B6800F5007508F8000A30F5007508F1007708F7
:100B7800863174267807080022008C018D018E01C9
:100B88003B3021008C00F0308D00D7308E00C8300B
:100B980023008E0020308D0017308C0024008D013A
:100BA8008C012100951722009D01080020002108D2
:100BB800A3002008A200A336A20CA336A20C220888
:100BC8002C009800200020080339A2000530A23527
:100BD800FF3E031DEB2D22352C0097000800200056
:100BE8002108A3002008A200A336A20CA336A20C59
:100BF80022082C009200200020080339A2000530AA
:100C0800A235FF3E031D042E22352C00910008005A
:100C18008531C025863187311127863187311727DD
:100C280086318631FD2686318631F5268631863134
:100C3800ED2686318631852686318631A62608003E
:100C48007208F4007108F300F436F30CF436F30C70
:100C580073082C00950071080339F3000530F3354B
:100C6800FF3E031D332E733594000800F500750808
:100C7800F3007208FF3E890A422EF336890B412E93
:100C88000130F400710A492EF435890B482E740896
:100C9800FF3E730508008531312D8531332D8531AF
:100CA800352D8531372D8531392D85313B2D8531D0
:100CB8003D2D85313F2D8531412D8531432D86319F
:100CC800E5268631240096158631E52686312400EE
:100CD80096196B2E1108F1007108F20072080800CD
:100CE800F400F301741C7C2E7108F2007208F307FB
:100CF8000310F10D0310F40C7408031D762E73080D
:100D08000800FF3020009B009A01911021009114E7
:100D18001B30F1000730F20087310B270430200028
:100D28009C00080038308531502586310C308531DB
:100D38005025863106308531502586310C30853175
:100D48005025080021001508C0391738950064306F
:100D5800200095006430F1007108C0000B110800F4
:100D6800F1008631E52686317108240091002000C3
:100D7800911191190800BD2E200091103E083F04E2
:100D8800031908003F088A003E080A008631080057
:100D98008631E5268631013024009600161C0800AD
:100DA800D22E8631E526863124009614961C08003A
:100DB800DA2E8631E526863124001615161D080020
:100DC800E22E24001419E52E16081F39031908000D
:100DD800E52EC0302C0099007F309800C030970075
:100DE8000800C0302C0096007F309500C030940079
:100DF8000800C0302C0093007F309200C030910072
:100E080008008631E5262400961616160800720892
:100E18002000BF007108BE0008007830210099004A
:100E280022009601080016302100970008000800EB
:020000040001F9
:04000E00E4FFFFFF0D
:00000001FF
