:0400000080312728FC
:100008007E14803120007F08F1000B1F2228210078
:10001800101E17282000101E172869088A00680873
:100028000A00803122282100901E22282000901EDC
:10003800222867088A0066080A00803171082000B3
:10004800FF007E10090080312928FA01FB012000F9
:10005800EB01EC01ED01EE01EF01E330840000302B
:1000680085000830843150248031203084000130EC
:1000780085004830843150248031A030840001301C
:1000880085004030843150247E10200080314C2877
:100098008431402480318B170B1720008E120C11ED
:1000A8008C108C122100E20120308600013087007C
:1000B800A2308400003085004030A00016001A00ED
:1000C800A00B622881312E21803182313722803184
:1000D80015302100A1004B30A000BE30890B7228DA
:1000E800A00B7228A10B72280000823137228031C0
:1000F80015302100A1004B30A000BE30890B8228AA
:10010800A00B8228A10B822800008231372280317F
:1001180015302100A1004B30A000BE30890B922879
:10012800A00B9228A10B922800008231372280313F
:1001380015302100A1004B30A000BE30890BA22849
:10014800A00BA228A10BA2280000823137228031FF
:1001580015302100A1004B30A000BE30890BB22819
:10016800A00BB228A10BB2280000823137228031BF
:1001780015302100A1004B30A000BE30890BC228E9
:10018800A00BC228A10BC22800008231372280317F
:1001980015302100A1004B30A000BE30890BD228B9
:1001A800A00BD228A10BD22800008231372280313F
:1001B80015302100A1004B30A000BE30890BE22889
:1001C800A00BE228A10BE2280000823137228031FF
:1001D80015302100A1004B30A000BE30890BF22859
:1001E800A00BF228A10BF2280000823137228031BF
:1001F80015302100A1004B30A000BE30890B022928
:10020800A00B0229A10B022900008331F4238031BD
:1002180015302100A1004B30A000BE30890B1229F7
:10022800A00B1229A10B1229000027298E162430B1
:100238008331402380310A308331402380310D30AF
:1002480083314023803120000E1E1A290E1E2729D3
:100258008E1227292000E501A03086000130870092
:1002680025308400003085004030F80016001A0060
:10027800F80B3A2984311C2481314030F4000030D5
:10028800F50025308131CA2181317408F8007808D9
:100298002000E5001530F9004B30F800BE30890B1E
:1002A8005329F80B5329F90B532900328331DC23E6
:1002B80081314030F4000030F50025308131CA2109
:1002C80081317408F80078082000E50082318C221A
:1002D80081314030F4000030F50025308131CA21E9
:1002E80081317408F80078082000E5008231C022C6
:1002F80081314030F4000030F50025308131CA21C9
:1003080081317408F80078082000E50083311C2347
:1003180081314030F4000030F50025308131CA21A8
:1003280081317408F80078082000E5008431082439
:1003380081314030F4000030F50025308131CA2188
:1003480081317408F80078082000E50084313424ED
:1003580081314030F4000030F50025308131CA2168
:1003680081317408F80078082000E50084312824D9
:1003780081314030F4000030F50025308131CA2148
:100388007408F80078082000E50008002000A400A0
:10039800A001A101A201A3011A30F600F830890BCF
:1003A800D329F60BD329003201302000A2070030F0
:1003B800A33D0A3022062304031DE729FF30F40079
:1003C800FF30F50008007A08031D2E2AD029833152
:1003D80086238131F600200020082407F7007708DB
:1003E80086008701760881000130A0070030A13D12
:1003F80075082106031D022A740820060319132A0A
:100408001B2A8331862381317A08031D132A1A3067
:10041800F600F830890B0E2AF60B0E2A00327A08FD
:10042800031D052AFE30F400FF30F50008000630F1
:10043800F6003030890B1E2AF60B1E2A00327A0885
:10044800031D2E2A1530F600C630890B292AF60B13
:10045800292A00327A08031DEB2920002308F50019
:100468002208F400080045308331402382312C30C3
:1004780083314023823130308331402382312C3024
:100488008331402382313030833140238231303010
:1004980083314023823131308331402382314530EA
:1004A80083314023823143308331402382313030DD
:1004B80083314023823134308331402382313130DB
:1004C80083314023823146308331402382313130B9
:1004D80083314023823133308331402382313430B9
:1004E8008331402382310D308331402382310A30F9
:1004F8008331402382310330F5000830F40077302F
:10050800890B842AF40B842AF50B842A000008003E
:100518005330833140238231533083314023823139
:100528002C30833140238231433083314023823160
:10053800303083314023823130308331402382315F
:10054800303083314023823130308331402382314F
:10055800303083314023823130308331402382313F
:1005680030308331402382310D3083314023823152
:100578000A308331402308005330833140238231CD
:1005880052308331402382312C30833140238231F1
:1005980039308331402382313230833140238231F4
:1005A80030308331402382313030833140238231EF
:1005B80030308331402382313030833140238231DF
:1005C80030308331402382313030833140238231CF
:1005D8000D308331402382310A30833140230800B3
:1005E80021009012C030F2000330F30084315C2403
:1005F800823121001012A330F2000330F30084315D
:100608005624083023009F0090309D0024309E001F
:1006180022309B009C01FB012000EF010830F40010
:100628007408EA00EE01ED01FA01210090160800B5
:1006380053308331402383312D308331402383313C
:100648002C3083314023833132308331402383314E
:100658004430833140238331313083314023833127
:1006680035308331402383310D308331402383314A
:100678000A30833140230800F30020006A08031978
:10068800412B2100101A4C2B730823009A00602B71
:1006980010127308F2007B08E33E86008701720897
:1006A80081000130F2007208FB0708307B02031852
:1006B800FB0101302000EA02210010160800220088
:1006C8008C018D018E01113021008C0070308D005D
:1006D800DF308E00CF3023008E00D0308D001730F1
:1006E8008C0024008D018C018E01210095172500B6
:1006F8008C018D018E010D303C00A40012303D00AC
:100708009F000800F3017A080319872B20006D0861
:10071800603E8600013087000108F2007208F3008D
:100728000130F2007208ED0708306D020318ED0180
:10073800210090120130FA02901673080800083060
:1007480020006A020318BD2B6F08E33E860087016C
:10075800010823009A000130F00070082000EF071C
:1007680008306F020318EF010130F0007008EA0743
:10077800080021001012080023009D1CC52B1D1223
:100788001D161908F00020006E08603E8600013032
:100798008700700881000130F0007008EE0708300B
:1007A8006E020318EE010130F0007008FA07080025
:1007B80053308331402383314630833140238331A2
:1007C8002C308331402383313130833140238331CE
:1007D8000D308331402383310A30833140230800B0
:1007E80021308331402383312C30833140238331BE
:1007F80031308331402383310D30833140238331BD
:100808000A30833140230800523083314023843139
:100818002C3083314023843131308331402384317B
:100828000D308331402384310A308331402308005E
:100838002B308331402384310D3083314023843180
:100848000A308331402308005830833140238431F3
:100858000D308331402384310A308331402308002E
:1008680046308331402384310D3083314023843135
:100878000A30833140230800833163238431843173
:10088800492484318231F42208007A302100990009
:100898009801220096010800640080010131890B4B
:1008A800512C003473082000E9007208E8000800A1
:0C08B80073082000E7007208E60008004A
:020000040001F9
:06000E00FC3FFF3F9F3F95
:00000001FF
